{
  "abi": [
    {
      "inputs": [],
      "stateMutability": "nonpayable",
      "type": "constructor"
    },
    {
      "inputs": [
        {
          "internalType": "uint256",
          "name": "id",
          "type": "uint256"
        }
      ],
      "name": "NonExistantTokenError",
      "type": "error"
    },
    {
      "inputs": [
        {
          "internalType": "address",
          "name": "owner",
          "type": "address"
        },
        {
          "internalType": "address",
          "name": "caller",
          "type": "address"
        }
      ],
      "name": "SetCellIsNotOwnerError",
      "type": "error"
    },
    {
      "anonymous": false,
      "inputs": [
        {
          "indexed": true,
          "internalType": "address",
          "name": "owner",
          "type": "address"
        },
        {
          "indexed": true,
          "internalType": "address",
          "name": "spender",
          "type": "address"
        },
        {
          "indexed": true,
          "internalType": "uint256",
          "name": "id",
          "type": "uint256"
        }
      ],
      "name": "Approval",
      "type": "event"
    },
    {
      "anonymous": false,
      "inputs": [
        {
          "indexed": true,
          "internalType": "address",
          "name": "owner",
          "type": "address"
        },
        {
          "indexed": true,
          "internalType": "address",
          "name": "operator",
          "type": "address"
        },
        {
          "indexed": false,
          "internalType": "bool",
          "name": "approved",
          "type": "bool"
        }
      ],
      "name": "ApprovalForAll",
      "type": "event"
    },
    {
      "anonymous": false,
      "inputs": [
        {
          "indexed": false,
          "internalType": "uint256",
          "name": "id",
          "type": "uint256"
        },
        {
          "indexed": false,
          "internalType": "uint256",
          "name": "value",
          "type": "uint256"
        },
        {
          "indexed": false,
          "internalType": "address",
          "name": "contractAddress",
          "type": "address"
        }
      ],
      "name": "CellUpdate",
      "type": "event"
    },
    {
      "anonymous": false,
      "inputs": [
        {
          "indexed": false,
          "internalType": "string",
          "name": "previousName",
          "type": "string"
        },
        {
          "indexed": false,
          "internalType": "string",
          "name": "newName",
          "type": "string"
        }
      ],
      "name": "NameUpdate",
      "type": "event"
    },
    {
      "anonymous": false,
      "inputs": [
        {
          "indexed": true,
          "internalType": "address",
          "name": "previousOwner",
          "type": "address"
        },
        {
          "indexed": true,
          "internalType": "address",
          "name": "newOwner",
          "type": "address"
        }
      ],
      "name": "OwnershipTransferred",
      "type": "event"
    },
    {
      "anonymous": false,
      "inputs": [
        {
          "indexed": false,
          "internalType": "string",
          "name": "previousSymbol",
          "type": "string"
        },
        {
          "indexed": false,
          "internalType": "string",
          "name": "newSymbol",
          "type": "string"
        }
      ],
      "name": "SymbolUpdate",
      "type": "event"
    },
    {
      "anonymous": false,
      "inputs": [
        {
          "indexed": true,
          "internalType": "address",
          "name": "from",
          "type": "address"
        },
        {
          "indexed": true,
          "internalType": "address",
          "name": "to",
          "type": "address"
        },
        {
          "indexed": true,
          "internalType": "uint256",
          "name": "id",
          "type": "uint256"
        }
      ],
      "name": "Transfer",
      "type": "event"
    },
    {
      "inputs": [],
      "name": "DEFAULT_VALUE",
      "outputs": [
        {
          "internalType": "uint256",
          "name": "",
          "type": "uint256"
        }
      ],
      "stateMutability": "view",
      "type": "function"
    },
    {
      "inputs": [],
      "name": "RC_BOUND",
      "outputs": [
        {
          "internalType": "address",
          "name": "",
          "type": "address"
        }
      ],
      "stateMutability": "view",
      "type": "function"
    },
    {
      "inputs": [
        {
          "internalType": "address",
          "name": "contractAddress",
          "type": "address"
        }
      ],
      "name": "_contractAddressIsTokenId",
      "outputs": [
        {
          "internalType": "bool",
          "name": "",
          "type": "bool"
        }
      ],
      "stateMutability": "pure",
      "type": "function"
    },
    {
      "inputs": [
        {
          "components": [
            {
              "internalType": "address",
              "name": "contractAddress",
              "type": "address"
            },
            {
              "internalType": "bytes32",
              "name": "value",
              "type": "bytes32"
            },
            {
              "internalType": "bytes",
              "name": "data",
              "type": "bytes"
            }
          ],
          "internalType": "struct CellData",
          "name": "cell",
          "type": "tuple"
        }
      ],
      "name": "_isConstant",
      "outputs": [
        {
          "internalType": "bool",
          "name": "",
          "type": "bool"
        }
      ],
      "stateMutability": "pure",
      "type": "function"
    },
    {
      "inputs": [
        {
          "internalType": "bytes",
          "name": "callData",
          "type": "bytes"
        }
      ],
      "name": "_renderCallData",
      "outputs": [
        {
          "internalType": "bytes",
          "name": "",
          "type": "bytes"
        }
      ],
      "stateMutability": "view",
      "type": "function"
    },
    {
      "inputs": [
        {
          "internalType": "uint256",
          "name": "value",
          "type": "uint256"
        }
      ],
      "name": "_renderCell",
      "outputs": [
        {
          "internalType": "bytes",
          "name": "",
          "type": "bytes"
        }
      ],
      "stateMutability": "view",
      "type": "function"
    },
    {
      "inputs": [
        {
          "components": [
            {
              "internalType": "address",
              "name": "contractAddress",
              "type": "address"
            },
            {
              "internalType": "bytes32",
              "name": "value",
              "type": "bytes32"
            },
            {
              "internalType": "bytes",
              "name": "data",
              "type": "bytes"
            }
          ],
          "internalType": "struct CellData",
          "name": "cell",
          "type": "tuple"
        }
      ],
      "name": "_renderConstantCell",
      "outputs": [
        {
          "internalType": "bytes",
          "name": "",
          "type": "bytes"
        }
      ],
      "stateMutability": "pure",
      "type": "function"
    },
    {
      "inputs": [
        {
          "internalType": "address",
          "name": "contractAddress",
          "type": "address"
        }
      ],
      "name": "_renderContractAddress",
      "outputs": [
        {
          "internalType": "address",
          "name": "",
          "type": "address"
        }
      ],
      "stateMutability": "view",
      "type": "function"
    },
    {
      "inputs": [
        {
          "internalType": "bytes32",
          "name": "selector",
          "type": "bytes32"
        }
      ],
      "name": "_renderSelector",
      "outputs": [
        {
          "internalType": "bytes4",
          "name": "",
          "type": "bytes4"
        }
      ],
      "stateMutability": "pure",
      "type": "function"
    },
    {
      "inputs": [
        {
          "internalType": "uint256",
          "name": "value",
          "type": "uint256"
        }
      ],
      "name": "_renderValue",
      "outputs": [
        {
          "internalType": "bool",
          "name": "",
          "type": "bool"
        },
        {
          "internalType": "uint256",
          "name": "",
          "type": "uint256"
        }
      ],
      "stateMutability": "pure",
      "type": "function"
    },
    {
      "inputs": [
        {
          "internalType": "address",
          "name": "spender",
          "type": "address"
        },
        {
          "internalType": "uint256",
          "name": "id",
          "type": "uint256"
        }
      ],
      "name": "approve",
      "outputs": [],
      "stateMutability": "nonpayable",
      "type": "function"
    },
    {
      "inputs": [
        {
          "internalType": "address",
          "name": "owner",
          "type": "address"
        }
      ],
      "name": "balanceOf",
      "outputs": [
        {
          "internalType": "uint256",
          "name": "",
          "type": "uint256"
        }
      ],
      "stateMutability": "view",
      "type": "function"
    },
    {
      "inputs": [
        {
          "internalType": "bytes",
          "name": "callData",
          "type": "bytes"
        }
      ],
      "name": "callData2Uint256Array",
      "outputs": [
        {
          "internalType": "uint256[]",
          "name": "",
          "type": "uint256[]"
        }
      ],
      "stateMutability": "pure",
      "type": "function"
    },
    {
      "inputs": [
        {
          "internalType": "uint256",
          "name": "",
          "type": "uint256"
        }
      ],
      "name": "cells",
      "outputs": [
        {
          "internalType": "address",
          "name": "contractAddress",
          "type": "address"
        },
        {
          "internalType": "bytes32",
          "name": "value",
          "type": "bytes32"
        },
        {
          "internalType": "bytes",
          "name": "data",
          "type": "bytes"
        }
      ],
      "stateMutability": "view",
      "type": "function"
    },
    {
      "inputs": [
        {
          "internalType": "uint256",
          "name": "",
          "type": "uint256"
        }
      ],
      "name": "getApproved",
      "outputs": [
        {
          "internalType": "address",
          "name": "",
          "type": "address"
        }
      ],
      "stateMutability": "view",
      "type": "function"
    },
    {
      "inputs": [
        {
          "internalType": "uint256",
          "name": "id",
          "type": "uint256"
        }
      ],
      "name": "getCell",
      "outputs": [
        {
          "internalType": "address",
          "name": "contractAddress",
          "type": "address"
        },
        {
          "internalType": "bytes32",
          "name": "value",
          "type": "bytes32"
        },
        {
          "internalType": "bytes",
          "name": "data",
          "type": "bytes"
        }
      ],
      "stateMutability": "view",
      "type": "function"
    },
    {
      "inputs": [
        {
          "internalType": "address",
          "name": "",
          "type": "address"
        },
        {
          "internalType": "address",
          "name": "",
          "type": "address"
        }
      ],
      "name": "isApprovedForAll",
      "outputs": [
        {
          "internalType": "bool",
          "name": "",
          "type": "bool"
        }
      ],
      "stateMutability": "view",
      "type": "function"
    },
    {
      "inputs": [],
      "name": "name",
      "outputs": [
        {
          "internalType": "string",
          "name": "",
          "type": "string"
        }
      ],
      "stateMutability": "view",
      "type": "function"
    },
    {
      "inputs": [],
      "name": "owner",
      "outputs": [
        {
          "internalType": "address",
          "name": "",
          "type": "address"
        }
      ],
      "stateMutability": "view",
      "type": "function"
    },
    {
      "inputs": [
        {
          "internalType": "uint256",
          "name": "id",
          "type": "uint256"
        }
      ],
      "name": "ownerOf",
      "outputs": [
        {
          "internalType": "address",
          "name": "owner",
          "type": "address"
        }
      ],
      "stateMutability": "view",
      "type": "function"
    },
    {
      "inputs": [
        {
          "internalType": "uint256",
          "name": "id",
          "type": "uint256"
        }
      ],
      "name": "renderCell",
      "outputs": [
        {
          "components": [
            {
              "internalType": "uint256",
              "name": "id",
              "type": "uint256"
            },
            {
              "internalType": "address",
              "name": "owner",
              "type": "address"
            },
            {
              "internalType": "bytes",
              "name": "value",
              "type": "bytes"
            }
          ],
          "internalType": "struct CellRendered",
          "name": "",
          "type": "tuple"
        }
      ],
      "stateMutability": "view",
      "type": "function"
    },
    {
      "inputs": [],
      "name": "renderer",
      "outputs": [
        {
          "internalType": "address",
          "name": "",
          "type": "address"
        }
      ],
      "stateMutability": "view",
      "type": "function"
    },
    {
      "inputs": [],
      "name": "renounceOwnership",
      "outputs": [],
      "stateMutability": "nonpayable",
      "type": "function"
    },
    {
      "inputs": [
        {
          "internalType": "address",
          "name": "from",
          "type": "address"
        },
        {
          "internalType": "address",
          "name": "to",
          "type": "address"
        },
        {
          "internalType": "uint256",
          "name": "id",
          "type": "uint256"
        }
      ],
      "name": "safeTransferFrom",
      "outputs": [],
      "stateMutability": "nonpayable",
      "type": "function"
    },
    {
      "inputs": [
        {
          "internalType": "address",
          "name": "from",
          "type": "address"
        },
        {
          "internalType": "address",
          "name": "to",
          "type": "address"
        },
        {
          "internalType": "uint256",
          "name": "id",
          "type": "uint256"
        },
        {
          "internalType": "bytes",
          "name": "data",
          "type": "bytes"
        }
      ],
      "name": "safeTransferFrom",
      "outputs": [],
      "stateMutability": "nonpayable",
      "type": "function"
    },
    {
      "inputs": [
        {
          "internalType": "address",
          "name": "operator",
          "type": "address"
        },
        {
          "internalType": "bool",
          "name": "approved",
          "type": "bool"
        }
      ],
      "name": "setApprovalForAll",
      "outputs": [],
      "stateMutability": "nonpayable",
      "type": "function"
    },
    {
      "inputs": [
        {
          "internalType": "uint256",
          "name": "id",
          "type": "uint256"
        },
        {
          "internalType": "uint160",
          "name": "contractAddress",
          "type": "uint160"
        },
        {
          "internalType": "bytes32",
          "name": "value",
          "type": "bytes32"
        },
        {
          "internalType": "bytes",
          "name": "data",
          "type": "bytes"
        }
      ],
      "name": "setCell",
      "outputs": [],
      "stateMutability": "nonpayable",
      "type": "function"
    },
    {
      "inputs": [
        {
          "internalType": "string",
          "name": "newName",
          "type": "string"
        }
      ],
      "name": "setName",
      "outputs": [],
      "stateMutability": "nonpayable",
      "type": "function"
    },
    {
      "inputs": [
        {
          "internalType": "address",
          "name": "newRender",
          "type": "address"
        }
      ],
      "name": "setRenderer",
      "outputs": [],
      "stateMutability": "nonpayable",
      "type": "function"
    },
    {
      "inputs": [
        {
          "internalType": "string",
          "name": "newSymbol",
          "type": "string"
        }
      ],
      "name": "setSymbol",
      "outputs": [],
      "stateMutability": "nonpayable",
      "type": "function"
    },
    {
      "inputs": [
        {
          "internalType": "bytes4",
          "name": "interfaceId",
          "type": "bytes4"
        }
      ],
      "name": "supportsInterface",
      "outputs": [
        {
          "internalType": "bool",
          "name": "",
          "type": "bool"
        }
      ],
      "stateMutability": "view",
      "type": "function"
    },
    {
      "inputs": [],
      "name": "symbol",
      "outputs": [
        {
          "internalType": "string",
          "name": "",
          "type": "string"
        }
      ],
      "stateMutability": "view",
      "type": "function"
    },
    {
      "inputs": [
        {
          "internalType": "uint256",
          "name": "",
          "type": "uint256"
        }
      ],
      "name": "tokenByIndex",
      "outputs": [
        {
          "internalType": "uint256",
          "name": "",
          "type": "uint256"
        }
      ],
      "stateMutability": "view",
      "type": "function"
    },
    {
      "inputs": [
        {
          "internalType": "uint256",
          "name": "id",
          "type": "uint256"
        }
      ],
      "name": "tokenURI",
      "outputs": [
        {
          "internalType": "string",
          "name": "",
          "type": "string"
        }
      ],
      "stateMutability": "view",
      "type": "function"
    },
    {
      "inputs": [],
      "name": "totalSupply",
      "outputs": [
        {
          "internalType": "uint256",
          "name": "",
          "type": "uint256"
        }
      ],
      "stateMutability": "view",
      "type": "function"
    },
    {
      "inputs": [
        {
          "internalType": "address",
          "name": "from",
          "type": "address"
        },
        {
          "internalType": "address",
          "name": "to",
          "type": "address"
        },
        {
          "internalType": "uint256",
          "name": "id",
          "type": "uint256"
        }
      ],
      "name": "transferFrom",
      "outputs": [],
      "stateMutability": "nonpayable",
      "type": "function"
    },
    {
      "inputs": [
        {
          "internalType": "address",
          "name": "newOwner",
          "type": "address"
        }
      ],
      "name": "transferOwnership",
      "outputs": [],
      "stateMutability": "nonpayable",
      "type": "function"
    }
  ],
  "bytecode": {
    "object": "0x60806040523480156200001157600080fd5b50604051806040016040528060078152602001660536865657420360cc1b815250604051806040016040528060048152602001630534854360e41b81525062000069620000636200008f60201b60201c565b62000093565b600162000077838262000188565b50600262000086828262000188565b50505062000254565b3390565b600080546001600160a01b038381166001600160a01b0319831681178455604051919092169283917f8be0079c531659141344cd1fd0a4f28419497f9722a3daafe3b4186f6b6457e09190a35050565b634e487b7160e01b600052604160045260246000fd5b600181811c908216806200010e57607f821691505b6020821081036200012f57634e487b7160e01b600052602260045260246000fd5b50919050565b601f8211156200018357600081815260208120601f850160051c810160208610156200015e5750805b601f850160051c820191505b818110156200017f578281556001016200016a565b5050505b505050565b81516001600160401b03811115620001a457620001a4620000e3565b620001bc81620001b58454620000f9565b8462000135565b602080601f831160018114620001f45760008415620001db5750858301515b600019600386901b1c1916600185901b1785556200017f565b600085815260208120601f198616915b82811015620002255788860151825594840194600190910190840162000204565b5085821015620002445787850151600019600388901b60f8161c191681555b5050505050600190811b01905550565b6121cc80620002646000396000f3fe608060405234801561001057600080fd5b50600436106102275760003560e01c8063715018a611610130578063b85d8b85116100b8578063cf0983981161007c578063cf09839814610512578063cfbe95d814610535578063df4ca20614610556578063e985e9c514610576578063f2fde38b146105a457600080fd5b8063b85d8b85146104a4578063b88d4fde146104ce578063b8c368ec146104e1578063c47f0027146104ec578063c87b56dd146104ff57600080fd5b806395d89b41116100ff57806395d89b4114610439578063a22cb46514610441578063b46ebb1214610454578063b6d658e114610467578063b84c82461461049157600080fd5b8063715018a6146103fa578063768d5029146104025780638ada6b0f146104155780638da5cb5b1461042857600080fd5b80631b06443c116101b35780634f6ccce7116101825780634f6ccce71461038157806356d3163d146103a15780636352211e146103b45780636a0abc74146103c757806370a08231146103e757600080fd5b80631b06443c14610335578063206848f61461034857806323b872dd1461035b57806342842e0e1461036e57600080fd5b8063081812fc116101fa578063081812fc146102a1578063095ea7b3146102e2578063172b9eed146102f757806318160ddd1461030a5780631941fd141461031357600080fd5b806301ffc9a71461022c57806302f3c4c91461025457806306fdde03146102745780630715a24a1461027c575b600080fd5b61023f61023a36600461176a565b6105b7565b60405190151581526020015b60405180910390f35b610267610262366004611861565b610609565b60405161024b9190611951565b610267610638565b6102936fffffffffffffffffffffffffffffffff81565b60405190815260200161024b565b6102ca6102af366004611964565b6005602052600090815260409020546001600160a01b031681565b6040516001600160a01b03909116815260200161024b565b6102f56102f036600461197d565b6106c6565b005b6102676103053660046119a9565b6107ad565b61029360075481565b610326610321366004611964565b610875565b60405161024b939291906119de565b6102ca610343366004611a0e565b61092a565b610326610356366004611964565b6109e3565b6102f5610369366004611a2b565b610ae1565b6102f561037c366004611a2b565b610ca8565b61029361038f366004611964565b60086020526000908152604090205481565b6102f56103af366004611a0e565b610da0565b6102ca6103c2366004611964565b610dca565b6103da6103d53660046119a9565b610e1c565b60405161024b9190611a6c565b6102936103f5366004611a0e565b610e60565b6102f5610ec3565b6102f5610410366004611af9565b610ed7565b6009546102ca906001600160a01b031681565b6000546001600160a01b03166102ca565b610267611035565b6102f561044f366004611b63565b611042565b610267610462366004611964565b6110ae565b61047a610475366004611964565b611258565b60408051921515835260208301919091520161024b565b6102f561049f366004611ba1565b611275565b6104b56104b2366004611964565b90565b6040516001600160e01b0319909116815260200161024b565b6102f56104dc366004611be3565b6112c6565b6102ca600160801b81565b6102f56104fa366004611ba1565b6113ae565b61026761050d366004611964565b6113ff565b61023f610520366004611a0e565b600160801b6001600160a01b03919091161090565b61023f610543366004611861565b516001600160a01b0316600160801b1490565b610569610564366004611964565b6114c9565b60405161024b9190611c16565b61023f610584366004611c4d565b600660209081526000928352604080842090915290825290205460ff1681565b6102f56105b2366004611a0e565b611526565b60006301ffc9a760e01b6001600160e01b0319831614806105e857506380ac58cd60e01b6001600160e01b03198316145b806106035750635b5e139f60e01b6001600160e01b03198316145b92915050565b6060816020015160405160200161062291815260200190565b6040516020818303038152906040529050919050565b6001805461064590611c7b565b80601f016020809104026020016040519081016040528092919081815260200182805461067190611c7b565b80156106be5780601f10610693576101008083540402835291602001916106be565b820191906000526020600020905b8154815290600101906020018083116106a157829003601f168201915b505050505081565b6000818152600360205260409020546001600160a01b03163381148061070f57506001600160a01b038116600090815260066020908152604080832033845290915290205460ff165b6107515760405162461bcd60e51b815260206004820152600e60248201526d1393d517d055551213d49256915160921b60448201526064015b60405180910390fd5b60008281526005602052604080822080546001600160a01b0319166001600160a01b0387811691821790925591518593918516917f8c5be1e5ebec7d5bd14f71427d1e84f3dd0314c0f7b2291e5b200ac8c7c3b92591a4505050565b606060006107ba83610e1c565b9050606060005b825181101561086d576000806107ef8584815181106107e2576107e2611cb5565b6020026020010151611258565b9150915081156108335783610803826110ae565b61080c90611ccb565b60405160200161081d929190611cef565b6040516020818303038152906040529350610858565b6040516108469085908390602001611cef565b60405160208183030381529060405293505b5050808061086590611d27565b9150506107c1565b509392505050565b600a602052600090815260409020805460018201546002830180546001600160a01b039093169391926108a790611c7b565b80601f01602080910402602001604051908101604052809291908181526020018280546108d390611c7b565b80156109205780601f106108f557610100808354040283529160200191610920565b820191906000526020600020905b81548152906001019060200180831161090357829003601f168201915b5050505050905083565b6000600160801b6001600160a01b03831610156109da576000610955836001600160a01b03166110ae565b604051632d737e4960e21b815290915073__$a792e50881dbcbffce7826062cdb0978aa$__9063b5cdf92490610992908490600090600401611d40565b602060405180830381865af41580156109af573d6000803e3d6000fd5b505050506040513d601f19601f820116820180604052508101906109d39190611d62565b9392505050565b5090565b919050565b60008181526003602052604081205481906060906001600160a01b0316610a1057600160801b9250610a2b565b6000848152600a60205260409020546001600160a01b031692505b6000848152600a60205260409020600181015460029091018054859291908190610a5490611c7b565b80601f0160208091040260200160405190810160405280929190818152602001828054610a8090611c7b565b8015610acd5780601f10610aa257610100808354040283529160200191610acd565b820191906000526020600020905b815481529060010190602001808311610ab057829003601f168201915b505050505090509250925092509193909250565b6000818152600360205260409020546001600160a01b03848116911614610b375760405162461bcd60e51b815260206004820152600a60248201526957524f4e475f46524f4d60b01b6044820152606401610748565b6001600160a01b038216610b815760405162461bcd60e51b81526020600482015260116024820152701253959053125117d49150d25412515395607a1b6044820152606401610748565b336001600160a01b0384161480610bbb57506001600160a01b038316600090815260066020908152604080832033845290915290205460ff165b80610bdc57506000818152600560205260409020546001600160a01b031633145b610c195760405162461bcd60e51b815260206004820152600e60248201526d1393d517d055551213d49256915160921b6044820152606401610748565b6001600160a01b0380841660008181526004602090815260408083208054600019019055938616808352848320805460010190558583526003825284832080546001600160a01b03199081168317909155600590925284832080549092169091559251849392917fddf252ad1be2c89b69c2b068fc378daa952ba7f163c4a11628f55a4df523b3ef91a4505050565b610cb3838383610ae1565b6001600160a01b0382163b1580610d5c5750604051630a85bd0160e11b8082523360048301526001600160a01b03858116602484015260448301849052608060648401526000608484015290919084169063150b7a029060a4016020604051808303816000875af1158015610d2c573d6000803e3d6000fd5b505050506040513d601f19601f82011682018060405250810190610d509190611d7b565b6001600160e01b031916145b610d9b5760405162461bcd60e51b815260206004820152601060248201526f155394d0519157d49150d2541251539560821b6044820152606401610748565b505050565b610da861159f565b600980546001600160a01b0319166001600160a01b0392909216919091179055565b6000818152600360205260409020546001600160a01b0316806109de5760405162461bcd60e51b815260206004820152600a6024820152691393d517d3525395115160b21b6044820152606401610748565b60608082516040519150602081048252602082016020850160005b83811015610e4f578181015183820152602001610e37565b505050810160200160405292915050565b60006001600160a01b038216610ea75760405162461bcd60e51b815260206004820152600c60248201526b5a45524f5f4144445245535360a01b6044820152606401610748565b506001600160a01b031660009081526004602052604090205490565b610ecb61159f565b610ed560006115f9565b565b6000858152600360205260409020546001600160a01b0316610f2f57610efd3286611649565b60078054600090815260086020526040812087905581546001929190610f24908490611d98565b90915550610f889050565b6000858152600360205260409020546001600160a01b03163214610f8857600085815260036020526040908190205490516324f3f02560e21b81526001600160a01b039091166004820152326024820152604401610748565b6040518060600160405280856001600160a01b0316815260200184815260200183838080601f0160208091040260200160405190810160405280939291908181526020018383808284376000920182905250939094525050878152600a6020908152604091829020845181546001600160a01b0319166001600160a01b0390911617815590840151600182015590830151909150600282019061102b9082611df9565b5050505050505050565b6002805461064590611c7b565b3360008181526006602090815260408083206001600160a01b03871680855290835292819020805460ff191686151590811790915590519081529192917f17307eab39ab6107e8899845ad3d59bd9653f200f220920489ca2b5937696c31910160405180910390a35050565b6000818152600a6020908152604080832081516060818101845282546001600160a01b0316825260018301549482019490945260028201805494959491938401916110f890611c7b565b80601f016020809104026020016040519081016040528092919081815260200182805461112490611c7b565b80156111715780601f1061114657610100808354040283529160200191611171565b820191906000526020600020905b81548152906001019060200180831161115457829003601f168201915b505050505081525050905061119381516001600160a01b0316600160801b1490565b156111a1576109d381610609565b60006111b0826000015161092a565b905060006111bf836020015190565b905060006111d084604001516107ad565b90506000836001600160a01b031683836040516020016111f1929190611eb9565b60408051601f198184030181529082905261120b91611eea565b600060405180830381855afa9150503d8060008114611246576040519150601f19603f3d011682016040523d82523d6000602084013e61124b565b606091505b5098975050505050505050565b600080611266600284611f06565b60019081149493901c92915050565b61127d61159f565b7f8dca0271872d00b3de3abafca544c52fcd7d512dd852c9894fa2c118ac759a93600283836040516112b193929190611fce565b60405180910390a16002610d9b828483611ffe565b6112d1858585610ae1565b6001600160a01b0384163b15806113685750604051630a85bd0160e11b808252906001600160a01b0386169063150b7a02906113199033908a908990899089906004016120be565b6020604051808303816000875af1158015611338573d6000803e3d6000fd5b505050506040513d601f19601f8201168201806040525081019061135c9190611d7b565b6001600160e01b031916145b6113a75760405162461bcd60e51b815260206004820152601060248201526f155394d0519157d49150d2541251539560821b6044820152606401610748565b5050505050565b6113b661159f565b7fb65b7b5ea384affd30f77f842e057d29dd1b13f133adf69a724a8105b164ab75600183836040516113ea93929190611fce565b60405180910390a16001610d9b828483611ffe565b6000818152600360205260409020546060906001600160a01b03168061143b57604051630243d1a960e21b815260048101849052602401610748565b6000611446846110ae565b6009546040516328de0f2f60e01b81529192506001600160a01b0316906328de0f2f9061147c90879085906001906004016120fd565b600060405180830381865afa158015611499573d6000803e3d6000fd5b505050506040513d6000823e601f3d908101601f191682016040526114c19190810190612128565b949350505050565b604080516060808201835260008083526020830181905292820152906114ee836110ae565b6040805160608101825285815260009586526003602090815295829020546001600160a01b0316958101959095528401525090919050565b61152e61159f565b6001600160a01b0381166115935760405162461bcd60e51b815260206004820152602660248201527f4f776e61626c653a206e6577206f776e657220697320746865207a65726f206160448201526564647265737360d01b6064820152608401610748565b61159c816115f9565b50565b6000546001600160a01b03163314610ed55760405162461bcd60e51b815260206004820181905260248201527f4f776e61626c653a2063616c6c6572206973206e6f7420746865206f776e65726044820152606401610748565b600080546001600160a01b038381166001600160a01b0319831681178455604051919092169283917f8be0079c531659141344cd1fd0a4f28419497f9722a3daafe3b4186f6b6457e09190a35050565b6001600160a01b0382166116935760405162461bcd60e51b81526020600482015260116024820152701253959053125117d49150d25412515395607a1b6044820152606401610748565b6000818152600360205260409020546001600160a01b0316156116e95760405162461bcd60e51b815260206004820152600e60248201526d1053149150511657d3525395115160921b6044820152606401610748565b6001600160a01b038216600081815260046020908152604080832080546001019055848352600390915280822080546001600160a01b0319168417905551839291907fddf252ad1be2c89b69c2b068fc378daa952ba7f163c4a11628f55a4df523b3ef908290a45050565b6001600160e01b03198116811461159c57600080fd5b60006020828403121561177c57600080fd5b81356109d381611754565b634e487b7160e01b600052604160045260246000fd5b604051601f8201601f1916810167ffffffffffffffff811182821017156117c6576117c6611787565b604052919050565b6001600160a01b038116811461159c57600080fd5b600067ffffffffffffffff8211156117fd576117fd611787565b50601f01601f191660200190565b600082601f83011261181c57600080fd5b813561182f61182a826117e3565b61179d565b81815284602083860101111561184457600080fd5b816020850160208301376000918101602001919091529392505050565b60006020828403121561187357600080fd5b813567ffffffffffffffff8082111561188b57600080fd5b908301906060828603121561189f57600080fd5b6040516060810181811083821117156118ba576118ba611787565b60405282356118c8816117ce565b8152602083810135908201526040830135828111156118e657600080fd5b6118f28782860161180b565b60408301525095945050505050565b60005b8381101561191c578181015183820152602001611904565b50506000910152565b6000815180845261193d816020860160208601611901565b601f01601f19169290920160200192915050565b6020815260006109d36020830184611925565b60006020828403121561197657600080fd5b5035919050565b6000806040838503121561199057600080fd5b823561199b816117ce565b946020939093013593505050565b6000602082840312156119bb57600080fd5b813567ffffffffffffffff8111156119d257600080fd5b6114c18482850161180b565b60018060a01b0384168152826020820152606060408201526000611a056060830184611925565b95945050505050565b600060208284031215611a2057600080fd5b81356109d3816117ce565b600080600060608486031215611a4057600080fd5b8335611a4b816117ce565b92506020840135611a5b816117ce565b929592945050506040919091013590565b6020808252825182820181905260009190848201906040850190845b81811015611aa457835183529284019291840191600101611a88565b50909695505050505050565b60008083601f840112611ac257600080fd5b50813567ffffffffffffffff811115611ada57600080fd5b602083019150836020828501011115611af257600080fd5b9250929050565b600080600080600060808688031215611b1157600080fd5b853594506020860135611b23816117ce565b935060408601359250606086013567ffffffffffffffff811115611b4657600080fd5b611b5288828901611ab0565b969995985093965092949392505050565b60008060408385031215611b7657600080fd5b8235611b81816117ce565b915060208301358015158114611b9657600080fd5b809150509250929050565b60008060208385031215611bb457600080fd5b823567ffffffffffffffff811115611bcb57600080fd5b611bd785828601611ab0565b90969095509350505050565b600080600080600060808688031215611bfb57600080fd5b8535611c06816117ce565b94506020860135611b23816117ce565b602081528151602082015260018060a01b036020830151166040820152600060408301516060808401526114c16080840182611925565b60008060408385031215611c6057600080fd5b8235611c6b816117ce565b91506020830135611b96816117ce565b600181811c90821680611c8f57607f821691505b602082108103611caf57634e487b7160e01b600052602260045260246000fd5b50919050565b634e487b7160e01b600052603260045260246000fd5b80516020808301519190811015611caf5760001960209190910360031b1b16919050565b60008351611d01818460208801611901565b9190910191825250602001919050565b634e487b7160e01b600052601160045260246000fd5b600060018201611d3957611d39611d11565b5060010190565b604081526000611d536040830185611925565b90508260208301529392505050565b600060208284031215611d7457600080fd5b5051919050565b600060208284031215611d8d57600080fd5b81516109d381611754565b8082018082111561060357610603611d11565b601f821115610d9b57600081815260208120601f850160051c81016020861015611dd25750805b601f850160051c820191505b81811015611df157828155600101611dde565b505050505050565b815167ffffffffffffffff811115611e1357611e13611787565b611e2781611e218454611c7b565b84611dab565b602080601f831160018114611e5c5760008415611e445750858301515b600019600386901b1c1916600185901b178555611df1565b600085815260208120601f198616915b82811015611e8b57888601518255948401946001909101908401611e6c565b5085821015611ea95787850151600019600388901b60f8161c191681555b5050505050600190811b01905550565b6001600160e01b0319831681528151600090611edc816004850160208701611901565b919091016004019392505050565b60008251611efc818460208701611901565b9190910192915050565b600082611f2357634e487b7160e01b600052601260045260246000fd5b500690565b60008154611f3581611c7b565b808552602060018381168015611f525760018114611f6c57611f9a565b60ff1985168884015283151560051b880183019550611f9a565b866000528260002060005b85811015611f925781548a8201860152908301908401611f77565b890184019650505b505050505092915050565b81835281816020850137506000828201602090810191909152601f909101601f19169091010190565b604081526000611fe16040830186611f28565b8281036020840152611ff4818587611fa5565b9695505050505050565b67ffffffffffffffff83111561201657612016611787565b61202a836120248354611c7b565b83611dab565b6000601f84116001811461205e57600085156120465750838201355b600019600387901b1c1916600186901b1783556113a7565b600083815260209020601f19861690835b8281101561208f578685013582556020948501946001909201910161206f565b50868210156120ac5760001960f88860031b161c19848701351681555b505060018560011b0183555050505050565b6001600160a01b03868116825285166020820152604081018490526080606082018190526000906120f29083018486611fa5565b979650505050505050565b8381526060602082015260006121166060830185611925565b8281036040840152611ff48185611f28565b60006020828403121561213a57600080fd5b815167ffffffffffffffff81111561215157600080fd5b8201601f8101841361216257600080fd5b805161217061182a826117e3565b81815285602083850101111561218557600080fd5b611a0582602083016020860161190156fea26469706673582212203fc548aa4f22e6f4c01757ba3f2e0383630418b3d17601758718ab19a4d9918d64736f6c63430008110033",
    "linkReferences": {
      "lib/eth-projects-monorepo/packages/eth-projects-contracts/contracts/lib/utils/Bytes.sol": {
        "Bytes": [
          {
            "start": 3019,
            "length": 20
          }
        ]
      }
    }
  },
  "methodIdentifiers": {
    "DEFAULT_VALUE()": "0715a24a",
    "RC_BOUND()": "b8c368ec",
    "_contractAddressIsTokenId(address)": "cf098398",
    "_isConstant((address,bytes32,bytes))": "cfbe95d8",
    "_renderCallData(bytes)": "172b9eed",
    "_renderCell(uint256)": "b46ebb12",
    "_renderConstantCell((address,bytes32,bytes))": "02f3c4c9",
    "_renderContractAddress(address)": "1b06443c",
    "_renderSelector(bytes32)": "b85d8b85",
    "_renderValue(uint256)": "b6d658e1",
    "approve(address,uint256)": "095ea7b3",
    "balanceOf(address)": "70a08231",
    "callData2Uint256Array(bytes)": "6a0abc74",
    "cells(uint256)": "1941fd14",
    "getApproved(uint256)": "081812fc",
    "getCell(uint256)": "206848f6",
    "isApprovedForAll(address,address)": "e985e9c5",
    "name()": "06fdde03",
    "owner()": "8da5cb5b",
    "ownerOf(uint256)": "6352211e",
    "renderCell(uint256)": "df4ca206",
    "renderer()": "8ada6b0f",
    "renounceOwnership()": "715018a6",
    "safeTransferFrom(address,address,uint256)": "42842e0e",
    "safeTransferFrom(address,address,uint256,bytes)": "b88d4fde",
    "setApprovalForAll(address,bool)": "a22cb465",
    "setCell(uint256,uint160,bytes32,bytes)": "768d5029",
    "setName(string)": "c47f0027",
    "setRenderer(address)": "56d3163d",
    "setSymbol(string)": "b84c8246",
    "supportsInterface(bytes4)": "01ffc9a7",
    "symbol()": "95d89b41",
    "tokenByIndex(uint256)": "4f6ccce7",
    "tokenURI(uint256)": "c87b56dd",
    "totalSupply()": "18160ddd",
    "transferFrom(address,address,uint256)": "23b872dd",
    "transferOwnership(address)": "f2fde38b"
  },
  "id": 31
}