{
  "abi": [
    {
      "inputs": [
        {
          "internalType": "uint256",
          "name": "id",
          "type": "uint256"
        }
      ],
      "name": "numberToIndex",
      "outputs": [
        {
          "internalType": "string",
          "name": "",
          "type": "string"
        }
      ],
      "stateMutability": "pure",
      "type": "function"
    },
    {
      "inputs": [
        {
          "internalType": "uint256",
          "name": "id",
          "type": "uint256"
        },
        {
          "internalType": "bytes",
          "name": "value",
          "type": "bytes"
        },
        {
          "internalType": "string",
          "name": "name",
          "type": "string"
        }
      ],
      "name": "tokenURI",
      "outputs": [
        {
          "internalType": "string",
          "name": "",
          "type": "string"
        }
      ],
      "stateMutability": "pure",
      "type": "function"
    }
  ],
  "bytecode": {
    "object": "0x608060405234801561001057600080fd5b50612c25806100206000396000f3fe608060405234801561001057600080fd5b50600436106100365760003560e01c806306d4cd8b1461003b57806328de0f2f14610064575b600080fd5b61004e610049366004610322565b610077565b60405161005b919061038b565b60405180910390f35b61004e610072366004610404565b6100f1565b60606000610086600f846104fc565b90506000610095600f8361051e565b61009f9085610535565b905060006100ae826041610548565b60f81b9050806100c76100c2856001610548565b6101b6565b6040516020016100d8929190610577565b6040516020818303038152906040529350505050919050565b606060006100fe86610077565b90508383826101838873__$a792e50881dbcbffce7826062cdb0978aa$__63b5cdf924909160006040518363ffffffff1660e01b81526004016101429291906105a8565b602060405180830381865af415801561015f573d6000803e3d6000fd5b505050506040513d601f19601f820116820180604052508101906100c291906105ca565b87878660405160200161019c97969594939291906105f2565b604051602081830303815290604052915050949350505050565b606060006101c383610249565b600101905060008167ffffffffffffffff8111156101e3576101e36103a5565b6040519080825280601f01601f19166020018201604052801561020d576020820181803683370190505b5090508181016020015b600019016f181899199a1a9b1b9c1cb0b131b232b360811b600a86061a8153600a850494508461021757509392505050565b60008072184f03e93ff9f4daa797ed6e38ed64bf6a1f0160401b83106102885772184f03e93ff9f4daa797ed6e38ed64bf6a1f0160401b830492506040015b6d04ee2d6d415b85acef810000000083106102b4576d04ee2d6d415b85acef8100000000830492506020015b662386f26fc1000083106102d257662386f26fc10000830492506010015b6305f5e10083106102ea576305f5e100830492506008015b61271083106102fe57612710830492506004015b60648310610310576064830492506002015b600a831061031c576001015b92915050565b60006020828403121561033457600080fd5b5035919050565b60005b8381101561035657818101518382015260200161033e565b50506000910152565b6000815180845261037781602086016020860161033b565b601f01601f19169290920160200192915050565b60208152600061039e602083018461035f565b9392505050565b634e487b7160e01b600052604160045260246000fd5b60008083601f8401126103cd57600080fd5b50813567ffffffffffffffff8111156103e557600080fd5b6020830191508360208285010111156103fd57600080fd5b9250929050565b6000806000806060858703121561041a57600080fd5b84359350602085013567ffffffffffffffff8082111561043957600080fd5b818701915087601f83011261044d57600080fd5b81358181111561045f5761045f6103a5565b604051601f8201601f19908116603f01168101908382118183101715610487576104876103a5565b816040528281528a60208487010111156104a057600080fd5b8260208601602083013760006020848301015280975050505060408701359150808211156104cd57600080fd5b506104da878288016103bb565b95989497509550505050565b634e487b7160e01b600052601160045260246000fd5b60008261051957634e487b7160e01b600052601260045260246000fd5b500490565b808202811582820484141761031c5761031c6104e6565b8181038181111561031c5761031c6104e6565b8082018082111561031c5761031c6104e6565b6000815161056d81856020860161033b565b9290920192915050565b6001600160f81b031983168152815160009061059a81600185016020870161033b565b919091016001019392505050565b6040815260006105bb604083018561035f565b90508260208301529392505050565b6000602082840312156105dc57600080fd5b5051919050565b81818437506000910190815290565b7f646174613a6170706c69636174696f6e2f6a736f6e2c7b22646573637269707481527f696f6e223a2022537461726b7368656574222c20226e616d65223a202200000060208201528688603d8301376000878201602160f81b603d820152875161066481603e840160208c0161033b565b7f222c22696d616765223a2022646174613a696d6167652f7376672b786d6c2c25603e92909101918201527f334373766725323076696577426f782533442532373025323030253230383925605e8201527f3230353525323725323066696c6c2533442532376e6f6e65253237253230786d607e8201527f6c6e73253344253237687474702533412f2f7777772e77332e6f72672f323030609e8201527f302f737667253237253345253343646566732533452533437374796c6525334560be8201527f253430666f6e742d66616365253230253742666f6e742d66616d696c7925334160de8201527f253230253237507265737325323053746172742532303250253237253342737260fe8201527f6325334125323075726c25323825323764617461253341666f6e742f776f666661011e8201527f32253342626173653634253243643039474d6741424141414141424c3841413861013e8201527f41414141415235774141424b674141454141414141414141414141414141414161015e8201527f4141414141414141414141414150305a4756453063476a41624d42794358675a61017e8201527f6741494e794551674b3846545361517544524141424e67496b41344e4d42434161019e8201527f46687a5148684649623644566c42306a314f4d4253336f4f4953744562732f2f6101be8201527f2f6c4a776356727a47634f30676f684c45484d6369694443434e57695a6761306101de8201527f79625345555954514f6a4b427038546c737a7344526438716174586c333058746101fe8201527f30645a47467952305668444b776c62746c25324272734643773945316e64655961021e8201527f4a74732f37527762305673784d71576c636a6a775445537a2f5568752f77337361023e8201527f33746b6f496d70343464515168576f456d54337579526d70746f7553446b7a5761025e8201527f454138762f3932364a4b7539486f696e6e3673376674336d4965476c7737547161027e8201527f6437456f326a46517849766a5642494a70563269614f62547a68575932314e7461029e8201527f476772687434704d4b3457556a34624c7967542f51253242514c7879253242336102be8201527f6c482f362f6b6275496444497239446a724a496a6f394a7336524d58253242456102de8201527f6b37424f545a6b6d70397a347455524652566656307148504448375a7462364a6102fe8201527f616f6130684c335975616232473373667a72365776394536793569767025324261031e8201527f7135564c74426a514478476f5345304150313762336466376c61726a6525324261033e8201527f73637a6b7241744a334b6657304a342532424b323365744b4b556a383554616f61035e8201527f57473453346158436c427743413268676141652532423658396f696e32304e6261037e8201527f554a7264466767517049686d5247494d30372f7025324277375a7058316c473161039e8201527f6a6a51787073435141423438714445415042346950312f6a39592f4261686a356103be8201527f5943414e302f78714157496852616a6c6e694e654f50396e78433466667932556103de8201527f694843304e47386b686f6f567a6f7459334445417a417a41356b473735337a6a6103fe8201527f4853354d6e6d586b69496a6d54554d36556d4d3025324256346976752f48377861041e8201527f6a364666322f6b343472787a6449324141676742492f4c48416b394a7a35554d61043e8201527f496f4c7755344146455435725a464f33444d616655633061777351434879497061045e8201527f557a546b30784a474a454f6a4e6871436b474570496153474f6a714e466d2f5761047e8201527f4e434e3569636b71434d6e414165564c4d4c655867356971386b365752585a5261049e8201527f326c337042393831427a73475a743225324256696c4342723954494a674b67786104be8201527f365542514446253242566a4b44714e7741414948386a6949664d6e75384b68666104de8201527f584b486f4e3348634134477245786842324155442f795a554d423857547579496104fe8201527f413444634f4b656434397939504249616e426967734d454e38556b30766c547661051e8201527f304a58334e394d795a75544d763573655357413525324238556538504465547261053e8201527f645467474973566d4e33635856586a6463795275633434385866664176506e7361055e8201527f3575324d4531722532426a4731703137767a3849704f416e483444427367793361057e8201527f512f54376b33646d2f3846334232377355694877464631414f6c683055646e4961059e8201527f4471494e5164506355393145786f2f346252696a6a5169704e4e307a4c646c7a6105be8201527f504438496f547449734c38717162746f4f5149514a5a567849705931315073536105de8201527f55533231397a4c585066642f507667765751346372464d2532425769755671706105fe8201527f645a6f4e6475645872632f4745324d4a36656e3575635746694763375274364f61061e8201527f487676354d674c2532427a44733578444277696141315433554877326b63594361063e8201527f312f55666453316645316d37763742346537653350574848786533594f32483561065e8201527f25324241504f5a7965503025324251506553425468793078713965363241486a61067e8201527f6141556842432f364144484c6f476f4f657636412532426867487369317a613861069e8201527f71355a4e4d716a596c575a4d713867354248445574495370574a73526f52544a6106be8201527f56613049305a3957546b5371564b73507a3464586a7648746449684c6e7670746106de8201527f554c4330753542567579414d544b4a513930594b5267546e5769476b6d7153456106fe8201527f714b6d7256685259674b6b335443686255573671456f45637665577a6859535461071e8201527f4c32484e706735452f6d7151393956564467763352475435586d33637a68754c61073e8201527f3972685864316132372f736c5130686959366a643739614f5a43746a6f52687261075e8201527f623136575676514b725734477a786a7869723238494d697a2f7155447973495761077e8201527f7037516a667765347a556437614a735651575179524c554b484b42577938577661079e8201527f45565333584d53353656337757644f442532424638757639645477496d4b722f6107be8201527f5064626d5763775176456641616a7975566a70784e32704f56635769336c38776107de8201527f454c2f6d395070646f55494536253242504b5838315041546d67654f304231736107fe8201527f47454825324261707a353466646d534a7a333741686635366a4c7739756e504561081e8201527f35644d4b3025324237544639563843435466523979664e7355493474557a464661083e8201527f42326e536e384b4f626a64446964554c7034494a6873777878595172595a643661085e8201527f4e76436e55394d445825324252654c6e4d546d6c315a453972306b5077334e3261087e8201527f6752253242736a4573596d4953706b356c31497333594e614a4b6f6e7a65703761089e8201527f56637354316e556b62347048774b5a41796b614b6f43504630506f6d456876496108be8201527f5758656e6f5a767836774f4b313070316c3274546858793850316555776473766108de8201527f53715157766f424d7473674851554a614774494273756861776450545a5378596108fe8201527f707257757734647a7231564755744449465871726f4d4d69597346783857695461091e8201527f336463574b6f376d50554c79715657413972305974524a4c626957766a6e4c2561093e8201527f324272633452646767624e516c514141613264306d616236364d48447074314361095e8201527f6477626b51436253375053445a4d7a3746724f51713165636153304a6c74644161097e8201527f6c44527941587173364130586247707748676b70367572557757416272464d3361099e8201527f75794d764e4b6c344d6c435548537950416d3931776144454a3559595148754a6109be8201527f4d32304b575251737637486b61334770686c533258444b714f4b4245554753316109de8201527f65306b63316f323449494166486c4449794278584a4a656767423369386174566109fe8201527f67434f3064444f5a484a57596a564c416a6a397137765673456e72684b374568610a1e8201527f4c75427a42586d4d674554634531636d61436976504b6f4a766670466c794935610a3e8201527f4d70584234454325324245672f596d303454787843354e6c73596b74646f5951610a5e8201527f55656c38624673456c3748345a36734377622f38626b347458574658504b6a71610a7e8201527f5462526e64336e4c5770394f784941706c664b586747684e6c72443462354a4c610a9e8201527f5a367055753441726756614d366561357844574244476f7a707a4641376e6747610abe8201527f74596334486141775269475576637653653652414177335a576b564f4667764b610ade8201527f46364955696c4d49394964715155345134585264484866736666517770313955610afe8201527f434a49306a5773725433356f5578303678507268473271364d4533554f306c63610b1e8201527f635a557354454351784a44527854444b6c334c4948722f6162546f73686c6466610b3e8201527f51786a364f57745273466e6966444373473674336b426f344e6d424a6d615556610b5e8201527f54636c794951414a4c6a6e723042365a3859464d6e396b397967703752727848610b7e8201527f36766877624a4e41654b4d554436353974386746514a4d5377652f434f624850610b9e8201527f467671484746554e5266253242737245663354584b42725a76676b6369396972610bbe8201527f426d63442f7458616754474358634e68432532424f3539754c706e6673796f71610bde8201527f4c53313238374552776d38666165564f6d3857634437386c5a36594232793938610bfe8201527f5a4c6c4d3972557264324c514e6c324956643454727376675139363079377573610c1e8201527f5965306854506170576a71726c2532425837784665424e54253242315a644a4a610c3e8201527f572532424678745737584e7774634e7a7761672532425256656a6d4a6839656d610c5e8201527f6c495a4b69694e63694b3849554f4d33556a4a376342554e5847505853326c68610c7e8201527f253242687770676f4836567348524f63764569723372585970344c7769435a77610c9e8201527f3176486c43623552314d68623564536e4f326d6e6f475a6f5846315765574757610cbe8201527f6d7a694a314a555534715072306e694a536c4e424331636b4b6d4a6657625877610cde8201527f5577757449547a456d6a776770776142753464525066746a2f4e384143526e64610cfe8201527f616b2f4641674b674c37305058577839767a6b59322532426d34355473496b4c610d1e8201527f3037616f70444e6f676830535262535a534f397a744657516a376e574c676275610d3e8201527f364325324254374b6a44715a3667456e5277674d78306b4c5a77797962514f76610d5e8201527f514130773054782f354a42722f63595a6453574f546a774446364e6f586b796a610d7e8201527f33566a484e4751494e76426a5a734a4a3377466141516d6f5a575a5970416961610d9e8201527f574f466e6e686455524176576b557a77693062677a5a4158796f445545714863610dbe8201527f57307069454c574f777168773365765478444957724e32495371525151454c41610dde8201527f4d32365334486c723548552f48784a43436844424a6b756b6341573856415430610dfe8201527f6770545a544b4e48677a444f7234314751656a4f34677a416e6b577077464752610e1e8201527f43334c625231787a4b434875365635694674674c704f384b51596d5965467868610e3e8201527f4c32643838736469506a2f76306b427a636c51637954735766324d6445394944610e5e8201527f386d5858576a72434b253242354532756e336e6976656973526e726971317548610e7e8201527f594d6a6a69694945304b6466674d6f3163476d6b557254624f30356732737633610e9e8201527f477673525971762f61457736375472644f705435567a4641364131417939634b610ebe8201527f6f44667762544a64445750524e57517354796a6d3772486249734b466b6f4f2f610ede8201527f5a4c4376735966785973337768534338614c49344b765677373773336e347a48610efe8201527f67697061634a6e435362463945727a53357069386343577655597a4f5064327a610f1e8201527f684a2f4750437a53684f453378596c634f3350796164586a54334f6b68706841610f3e8201527f58465853766865544e5355525446565641486f4a6d7949726b6a454b6f517746610f5e8201527f4730303554334158643935764e30446d336d427332786746546c253242513572610f7e8201527f73416a6e744768707a6f62643642374e7a52664e56653130446f4e5639343753610f9e8201527f59646f635252624776636d785456786f61367a717756376d416e773544314745610fbe8201527f5474327a48382532425476514256356e37672f32615768743979794e594c3974610fde8201527f4f42744167384846435945316d4e775432454232467538544968543776565241610ffe8201527f3461587a6e6b3670545a4e6779696f73747749364b654655374c696c7041253261101e8201527f42334234474a794277574d327062466a4876734a3747754f6f616b6a6d46746a61103e8201527f59344c6254396c323239253242453646374c4475577a744c6e333749786b386a61105e8201527f356c42564b33774c7369362f416641756f6a34396c4d6b5653545045396b704761107e8201527f64304c724555534a4941413070596c4178414d642f4e4f46776f4a446458466961109e8201527f307a4f5744422f54464a705666575642574f516274724a556230636c663369256110be8201527f3242575072446f596c65545674564f45306d36793564487444725551776f414c6110de8201527f7455523365585364444d4e785866656a594674764c626c726c4a7777484b2f456110fe8201527f6957504a616b32574b35386e684e6f4c6a615a55475841756f32656f5777464561111e8201527f66612f445334496958717246714779633348726939785132693243352f73357661113e8201527f7a424d30793777334d4473774d3759325247427172464d6778374f696325324261115e8201527f30497a736d5678617a5473305263666a324f3334532f525639503269486f427561117e8201527f6c4b49594244665a46654c53356439725379664a64536c67683268644d72324f61119e8201527f5552334b6e6c506e4f41785477314a384c4d325a776e4671765a745a4a6c78786111be8201527f343873776243743272316b664875443756624831326159383849437456734b786111de8201527f4b742f31726b616c42414d74782f6f6f6d43445059626b556f4c6344624b436a6111fe8201527f7675713953544467746a584744715735564b36686347654f46697a6a3643714c61121e8201527f4f49716b57783477733245504d444e7378253242613661533230384f39784c3061123e8201527f526146586f394241645530706e452532424c695359334b536f4a41525978646e61125e8201527f7a69545a4d706961442f3438496969393834446151357976656378414673735761127e8201527f792f686274696d63253242704c386b35796f70496d4a627948712f6138797a6c61129e8201527f6c37726f4f7a586d786d4163337459585363546b65734d6344324939315a36336112be8201527f6549312f394a627755716b36737863394b52677277574d414e6543314e6e39756112de8201527f4779775473706d5538712532426c5a6d43714d674153363662674841476a514b6112fe8201527f73754a334451416a5235346d356a4c7a5a616e546c62646530253242726e663461131e8201527f385a574138546c32673277414779427748516e3552322532424e6a726542677861133e8201527f626c734e46627554776d6862414a48737a2f72416f61764c4f34317874767a5961135e8201527f4768336e4c4a426b41506a7578424a445248333048426575385567436978464e61137e8201527f437951322f4b253242385157372f6530253242664f2532423436524e5730657961139e8201527f4c726f39446a5467704a4e4d3547385179306c54644f756d73773066715045696113be8201527f393646702532424830634d774e6f376a787a596d6e4e664d5a6d64506c7932706113de8201527f6f7132575065476d67507136474c78504e34536c4b486e7870624f69754c58516113fe8201527f75583155715031676a6f38426136536c55314f416d5267707a7531735444584a61141e8201527f50754d3338546f387130344c324e777970653837327777556741675a6c70386461143e8201527f6b5166397a38544d43624d6b596b3758484375333564375a5a41656f346b5a4b61145e8201527f68784953386945354c546a334c4f6976485a7268394a3870337a4c5a436a776361147e8201527f6970354452694b6e576e49664c33386b4a684d7452776a67553525324256726d61149e8201527f714b6c6739307a376a64732f4238444b646b464c76483353253242376f4838616114be8201527f6c445a6c626734533155583574434d445342324f364b756c7a41344b763067376114de8201527f314251643054464b7733685358696e62374e6c304258725873514e6376436b386114fe8201527f6d6f394f786965783559627a78564e2f6b3738336f48545a495777393079495a61151e8201527f777672697164475473586e54384965705437597946434f4a6741395a3042794961153e8201527f455956735478522f6b73616b324268376f4b767034766e695530364d57317a4261155e8201527f4672746568647a306b6b587951786a426d7965645636644d596545386146787461157e8201527f6575777355466136466c6c54446c716430707a525a77473663467266574d627061159e8201527f384738587a6a66624d253242354658657076356f457273696c363458783663376115be8201527f5841576275696d3666387347494d58666f334a6971476b703333376854536a676115de8201527f65636862364f42472f327a31376a6f6d4469476d253242476c623146553069656115fe8201527f6e7552796977654c576767447a6d4655765545556a5a6f377356544877684f4661161e8201527f504d6b4e737146423977796d6b45307639666d7477453854377135384e594f3761163e8201527f787534623833766e46766c35755378446c472532426b4f51675249644f346a6761165e8201527f7a786a53486a4b4c7332742f6c684f647771766131415744437072763344345361167e8201527f34523741625934544362664b4637744265363554343551347a7a49714433316161169e8201527f79797557716a692532424636585337535439483943314f342f694b366b4775766116be8201527f6b512f664e3537487837456533373435622f76766e2f62482f58253242392f256116de8201527f32426762656d684f416d49705576755157757344764b517578394a44564e734b6116fe8201527f673651636d6b73515341445530346347524c523768466f5a326337785545664761171e8201527f253242776b755459474d764c6a422f6550634936416847686e5735717a45416961173e8201527f4a586377564545775869654e70536c317a6a457253253242435325324248634c61175e8201527f6f52506d7661324d6767412f69794c67536f544a555767733442794149514f3061177e8201527f4f6f705a487656627a6844494c65557155677a7a48492f667950474e7879777361179e8201527f6f796c6865534639577662795363336b4544716b32415636436c4364635535536117be8201527f6e6c4e6e4963394b794d63384c79622532423867484f4a795173466c4c6250526117de8201527f796d6d374a42743349545a544162314732444252496b514b51705451396939626117fe8201527f3665435353387a4d366161525364544b5657524d336663454a4c644b61746e7361181e8201527f724959774e4a55253242733048364461757832775a35686733706c653042474861183e8201527f756b316b4543734859446461496d4b7025324233463542317859763763486b7161185e8201527f644475306a4b645273657a3531376d63563641685148346931484e3173766c6a61187e8201527f5248366845454672682532426e72726d47316e33307a4d346749776d694d774561189e8201527f624b6842545564423141486f582532424b6741517a4f48543946494f71436b526118be8201527f4e4e623273397170496943534f753167576868497343564a73765771457175356118de8201527f47624a514b4e6a61427465394c4f69676368414a7665475773394332323033766118fe8201527f6f6e476c6b77725251323464646732796345646157554456734441785548734961191e8201527f77773665615234464665336d4a416b66426d5a6452395264774a485a6d47645261193e8201527f7950436a706a627a31712f584a34534949446b66384b4b6e6e32456c4b6d794c61195e8201527f69573442513836733151554b2f76426867524e776548766c5968687a7238706361197e8201527f67704b4b6d6f61576a7036426b594f48446c7835734b5647336365474539657661199e8201527f506e773563646667454242676f554946536238587632504553314772446a78456119be8201527f69524b6b697846716a54704d6d544b6b693148726a7a354368517155717845716119de8201527f544c6c4b6c53715571314772547231476a527130717846717a62744f6e5347656119fe8201527f3668374a6d627a4968355a6544696c315a58536a7430774375616b336c6e476f611a1e8201527f5655506f53734e663337394b326a6274716d44674d69485a42665a6c68324839611a3e8201527f75773738495469314a466a585653662f4336634f55667a346f30644178305447611a5e8201527f777448446863666a3443516d49694531444d5a42546b6c4e5a557065566f614f611a7e8201527f6e717633733234314e50503965766574594768435a50576a4979747332706173611a9e8201527f436a25324270556a54596c336b615574374f744b4a6136355850396d356e6367611abe8201527f364e686a685a587032762532426d57724341545a754a303368316b6a55756976611ade8201527f5067596e6a6e35744b4a4f6b326e6362703251414559585a69304b496d50356b611afe8201527f744961466e366b5a397743253237253239253230666f726d6174253238253237611b1e8201527f776f666632253237253239253342666f6e742d7765696768742533412532306e611b3e8201527f6f726d616c253342666f6e742d7374796c652533412532306e6f726d616c2533611b5e8201527f42666f6e742d646973706c617925334125323073776170253342253744746578611b7e8201527f74253230253742666f6e742d66616d696c792533412532302532375072657373611b9e8201527f2532305374617274253230325025323725334266696c6c253341253230776869611bbe8201527f74652537442e76616c7565253230253742666f6e742d73697a65253341253230611bde8201527f313070782533422537442e6e616d65253230253742666f6e742d73697a652533611bfe8201527f412532303470782533422537442533432f7374796c652533452533432f646566611c1e8201527f7325334525334372656374253230776964746825334425323738392532372532611c3e8201527f30686569676874253344253237353525323725323066696c6c25334425323762611c5e8201527f6c61636b2532372532302f253345253343726563742532307825334425323735611c7e8201527f2e3525323725323079253344253237352e352532372532307769647468253344611c9e8201527f2532373738253237253230686569676874253344253237343425323725323066611cbe8201527f696c6c2533442532372532333030303046462532372532302f25334525334374611cde8201527f657874253230746578742d616e63686f722533442532376d6964646c65253237611cfe8201527f2532307825334425323734342e35253237253230792533442532373333253237611d1e8201527f253230636c61737325334425323776616c756525323725334500000000000000611d3e820152612ba5612b9e6129f5611d5784018a61055b565b7f2533432f746578742533452533437265637425323078253344253237352e352581527f323725323079253344253237352e35253237253230776964746825334425323760208201527f373825323725323068656967687425334425323734342532372532307374726f60408201527f6b652533442532372532334646344630412532372532307374726f6b652d776960608201527f647468253344253237332532372532302f25334525334372656374253230782560808201527f334425323733302532372532307925334425323734352e35253237253230776960a08201527f647468253344253237353825323725323068656967687425334425323738253260c08201527f3725323066696c6c2533442532372532334646344630412532372532302f253360e08201527f4525334374657874253230746578742d616e63686f72253344253237656e64256101008201527f32372532307825334425323738372532372532307925334425323735322532376101208201527f253230636c6173732533442532376e616d6525323725334500000000000000006101408201526101580190565b86886105e3565b602160f81b81529050612bbb600182018561055b565b7f2533432f746578742533452533432f737667253345227d00000000000000000081526017019a995050505050505050505056fea2646970667358221220f64400964cf21cb4940de76482b5ee6f22f9e46a781e948eea81a1999aa43eb964736f6c63430008150033",
    "linkReferences": {
      "lib/eth-projects-monorepo/packages/eth-projects-contracts/contracts/lib/utils/Bytes.sol": {
        "Bytes": [
          {
            "start": 297,
            "length": 20
          }
        ]
      }
    }
  },
  "methodIdentifiers": {
    "numberToIndex(uint256)": "06d4cd8b",
    "tokenURI(uint256,bytes,string)": "28de0f2f"
  },
  "id": 27
}